:100000000C945C000C9479000C9479000C947900A9
:100010000C9479000C9479000C9479000C9479007C
:100020000C9479000C9479000C9479000C9479006C
:100030000C9479000C9479000C9479000C9479005C
:100040000C94A2000C9479000C9479000C94790023
:100050000C9479000C9479000C9479000C9479003C
:100060000C9479000C947900000000080002010053
:100070000003040700000000000000000102040863
:100080001020408001020408102001020408102002
:10009000040404040404040402020202020203032E
:1000A0000303030300000000250028002B000000CC
:1000B0000000240027002A0011241FBECFEFD8E043
:1000C000DEBFCDBF11E0A0E0B1E0EAE3F4E002C0A2
:1000D00005900D92A630B107D9F721E0A6E0B1E076
:1000E00001C01D92AF30B207E1F70E940B020C94E1
:1000F0001B020C94000061E0809104010C949B01B0
:10010000CF93DF93C4E0D1E061E088810E94D40105
:100110006091020170910301882777FD8095982FE7
:100120000E940F0160E088810E94D401609100016B
:1001300070910101882777FD8095982FDF91CF91ED
:100140000C940F011F920F920FB60F9211242F9350
:100150003F938F939F93AF93BF93809107019091AB
:100160000801A0910901B0910A013091060123E034
:10017000230F2D3720F40196A11DB11D05C026E8DF
:10018000230F0296A11DB11D209306018093070144
:1001900090930801A0930901B0930A0180910B018B
:1001A00090910C01A0910D01B0910E010196A11D3D
:1001B000B11D80930B0190930C01A0930D01B0939E
:1001C0000E01BF91AF919F918F913F912F910F9011
:1001D0000FBE0F901F9018953FB7F89480910B01B8
:1001E00090910C01A0910D01B0910E0126B5A89B34
:1001F00005C02F3F19F00196A11DB11D3FBF662715
:10020000782F892F9A2F620F711D811D911D42E059
:10021000660F771F881F991F4A95D1F70895CF92CF
:10022000DF92EF92FF92CF93DF936B017C010E94EC
:10023000EC00EB01C114D104E104F10489F00E9447
:100240001A020E94EC006C1B7D0B683E734090F319
:1002500081E0C81AD108E108F108C851DC4FEACFA3
:10026000DF91CF91FF90EF90DF90CF900895789439
:1002700084B5826084BD84B5816084BD85B58260AB
:1002800085BD85B5816085BDEEE6F0E08081816049
:100290008083E1E8F0E01082808182608083808149
:1002A00081608083E0E8F0E0808181608083E1EB21
:1002B000F0E0808184608083E0EBF0E08081816009
:1002C0008083EAE7F0E080818460808380818260BF
:1002D00080838081816080838081806880831092A8
:1002E000C1000895833081F028F4813099F0823084
:1002F000A1F008958730A9F08830B9F08430D1F4A6
:10030000809180008F7D03C0809180008F778093E3
:100310008000089584B58F7702C084B58F7D84BD39
:1003200008958091B0008F7703C08091B0008F7DD9
:100330008093B0000895CF93DF9390E0FC01E458E0
:10034000FF4F2491FC01E057FF4F8491882349F12E
:1003500090E0880F991FFC01E255FF4FA591B491E1
:100360008C559F4FFC01C591D4919FB7611108C076
:10037000F8948C91209582238C93888182230AC0E3
:10038000623051F4F8948C91322F309583238C9302
:100390008881822B888304C0F8948C91822B8C9363
:1003A0009FBFDF91CF9108950F931F93CF93DF935A
:1003B0001F92CDB7DEB7282F30E0F901E859FF4F83
:1003C0008491F901E458FF4F1491F901E057FF4F70
:1003D00004910023C9F0882321F069830E947201EF
:1003E0006981E02FF0E0EE0FFF1FEC55FF4FA59164
:1003F000B4919FB7F8948C91611103C0109581233B
:1004000001C0812B8C939FBF0F90DF91CF911F91E3
:100410000F91089508950E9437010E940A020E94D8
:100420007B00C0E0D0E00E9480002097E1F30E94B2
:0A0430000000F9CF0895F894FFCF03
:06043A00F4016400010062
:107E0000112484B714BE81FFF0D085E080938100F7
:107E100082E08093C00088E18093C10086E0809377
:107E2000C20080E18093C4008EE0C9D0259A86E02C
:107E300020E33CEF91E0309385002093840096BBD3
:107E4000B09BFECF1D9AA8958150A9F7CC24DD24C4
:107E500088248394B5E0AB2EA1E19A2EF3E0BF2EE7
:107E6000A2D0813461F49FD0082FAFD0023811F036
:107E7000013811F484E001C083E08DD089C08234E0
:107E800011F484E103C0853419F485E0A6D080C0E4
:107E9000853579F488D0E82EFF2485D0082F10E0AE
:107EA000102F00270E291F29000F111F8ED06801E7
:107EB0006FC0863521F484E090D080E0DECF843638
:107EC00009F040C070D06FD0082F6DD080E0C81688
:107ED00080E7D80618F4F601B7BEE895C0E0D1E017
:107EE00062D089930C17E1F7F0E0CF16F0E7DF06D8
:107EF00018F0F601B7BEE89568D007B600FCFDCFD4
:107F0000A601A0E0B1E02C9130E011968C91119780
:107F100090E0982F8827822B932B1296FA010C0160
:107F200087BEE89511244E5F5F4FF1E0A038BF0790
:107F300051F7F601A7BEE89507B600FCFDCF97BE46
:107F4000E89526C08437B1F42ED02DD0F82E2BD052
:107F50003CD0F601EF2C8F010F5F1F4F84911BD097
:107F6000EA94F801C1F70894C11CD11CFA94CF0C13
:107F7000D11C0EC0853739F428D08EE10CD085E9AC
:107F80000AD08FE07ACF813511F488E018D01DD067
:107F900080E101D065CF982F8091C00085FFFCCF94
:107FA0009093C60008958091C00087FFFCCF809118
:107FB000C00084FD01C0A8958091C6000895E0E648
:107FC000F0E098E1908380830895EDDF803219F02E
:107FD00088E0F5DFFFCF84E1DECF1F93182FE3DFCA
:107FE0001150E9F7F2DF1F91089580E0E8DFEE27F6
:047FF000FF270994CA
:027FFE00040479
:0400000300007E007B
:00000001FF
